{
  "contractName": "ProductDatabase",
  "abi": [
    {
      "constant": true,
      "inputs": [
        {
          "name": "",
          "type": "uint256"
        }
      ],
      "name": "products",
      "outputs": [
        {
          "name": "",
          "type": "address"
        }
      ],
      "payable": false,
      "stateMutability": "view",
      "type": "function"
    },
    {
      "constant": true,
      "inputs": [
        {
          "name": "",
          "type": "uint256"
        }
      ],
      "name": "getCount",
      "outputs": [
        {
          "name": "count",
          "type": "uint256"
        }
      ],
      "payable": false,
      "stateMutability": "view",
      "type": "function"
    },
    {
      "constant": false,
      "inputs": [
        {
          "name": "_productRef",
          "type": "address"
        }
      ],
      "name": "addProduct",
      "outputs": [],
      "payable": false,
      "stateMutability": "nonpayable",
      "type": "function"
    },
    {
      "inputs": [],
      "payable": false,
      "stateMutability": "nonpayable",
      "type": "constructor"
    },
    {
      "payable": false,
      "stateMutability": "nonpayable",
      "type": "fallback"
    },
    {
      "anonymous": false,
      "inputs": [
        {
          "indexed": false,
          "name": "_productRef",
          "type": "address"
        }
      ],
      "name": "OnAddProductEvent",
      "type": "event"
    }
  ],
  "bytecode": "0x6060604052341561000f57600080fd5b6103148061001e6000396000f300606060405260043610610057576000357c0100000000000000000000000000000000000000000000000000000000900463ffffffff1680637acc0b2014610067578063a87d942c146100ca578063f44a6ca9146100f3575b341561006257600080fd5b600080fd5b341561007257600080fd5b610088600480803590602001909190505061012c565b604051808273ffffffffffffffffffffffffffffffffffffffff1673ffffffffffffffffffffffffffffffffffffffff16815260200191505060405180910390f35b34156100d557600080fd5b6100dd61016b565b6040518082815260200191505060405180910390f35b34156100fe57600080fd5b61012a600480803573ffffffffffffffffffffffffffffffffffffffff16906020019091905050610177565b005b60008181548110151561013b57fe5b90600052602060002090016000915054906101000a900473ffffffffffffffffffffffffffffffffffffffff1681565b60008080549050905090565b600160008273ffffffffffffffffffffffffffffffffffffffff1673ffffffffffffffffffffffffffffffffffffffff16815260200190815260200160002060009054906101000a900460ff16156101ce57600080fd5b600080548060010182816101e29190610297565b9160005260206000209001600083909190916101000a81548173ffffffffffffffffffffffffffffffffffffffff021916908373ffffffffffffffffffffffffffffffffffffffff160217905550507f32ce9bb6ac5aefe4253f61c408ef10c74d8218c4454d01068b550e90022f3fbe81604051808273ffffffffffffffffffffffffffffffffffffffff1673ffffffffffffffffffffffffffffffffffffffff16815260200191505060405180910390a150565b8154818355818115116102be578183600052602060002091820191016102bd91906102c3565b5b505050565b6102e591905b808211156102e15760008160009055506001016102c9565b5090565b905600a165627a7a723058201fa859d5c83f436d15b8995b1e3b48730b1c851be7b81f56824a9849bd4ffb470029",
  "source": "pragma solidity ^0.4.18;\r\n\r\ncontract ProductDatabase {\r\n\r\n    address[] public products;\r\n    mapping(address=>bool) stored;\r\n\r\n    function ProductDatabase() public {}\r\n\r\n    event OnAddProductEvent(\r\n        address _productRef\r\n    );\r\n\r\n    function () public {\r\n        revert();\r\n    }\r\n\r\n    function addProduct(address _productRef) public {\r\n        if (stored[_productRef]) {\r\n            revert();\r\n        }\r\n        products.push(_productRef);\r\n        OnAddProductEvent(_productRef);\r\n    }\r\n\r\n    function getCount() public view returns (uint count) {\r\n        return products.length;\r\n    }\r\n}",
  "sourcePath": "C:\\Users\\CQ464UC\\Documents\\truffle\\contracts\\ProductDatabase.sol",
  "compiler": {
    "name": "solc",
    "version": "0.4.18+commit.9cf6e910.Emscripten.clang"
  },
  "schemaVersion": "1.0.1",
  "updatedAt": "2017-11-14T20:31:09.545Z"
}