{
  "contractName": "Product",
  "abi": [
    {
      "constant": true,
      "inputs": [],
      "name": "getState",
      "outputs": [
        {
          "name": "_name",
          "type": "string"
        },
        {
          "name": "_currentStatus",
          "type": "uint8"
        },
        {
          "name": "_currentHolder",
          "type": "address"
        }
      ],
      "payable": false,
      "stateMutability": "view",
      "type": "function"
    },
    {
      "constant": false,
      "inputs": [
        {
          "name": "_description",
          "type": "string"
        },
        {
          "name": "_status",
          "type": "uint8"
        },
        {
          "name": "_ref",
          "type": "address"
        }
      ],
      "name": "addAction",
      "outputs": [],
      "payable": false,
      "stateMutability": "nonpayable",
      "type": "function"
    },
    {
      "inputs": [
        {
          "name": "_name",
          "type": "string"
        },
        {
          "name": "_productFactory",
          "type": "address"
        },
        {
          "name": "_ref",
          "type": "address"
        },
        {
          "name": "_registry",
          "type": "address"
        }
      ],
      "payable": false,
      "stateMutability": "nonpayable",
      "type": "constructor"
    },
    {
      "anonymous": false,
      "inputs": [
        {
          "indexed": false,
          "name": "_ref",
          "type": "address"
        },
        {
          "indexed": false,
          "name": "_description",
          "type": "string"
        },
        {
          "indexed": false,
          "name": "_timestamp",
          "type": "uint256"
        },
        {
          "indexed": false,
          "name": "_blockNumber",
          "type": "uint256"
        },
        {
          "indexed": false,
          "name": "_status",
          "type": "uint8"
        }
      ],
      "name": "OnActionEvent",
      "type": "event"
    }
  ],
  "bytecode": "0x6060604052341561000f57600080fd5b604051610ad1380380610ad183398101604052808051820191906020018051906020019091908051906020019091908051906020019091905050826000806101000a81548173ffffffffffffffffffffffffffffffffffffffff021916908373ffffffffffffffffffffffffffffffffffffffff16021790555080600160006101000a81548173ffffffffffffffffffffffffffffffffffffffff021916908373ffffffffffffffffffffffffffffffffffffffff16021790555083600290805190602001906100e09291906103cf565b506000600360006101000a81548160ff0219169083600681111561010057fe5b021790555081600360016101000a81548173ffffffffffffffffffffffffffffffffffffffff021916908373ffffffffffffffffffffffffffffffffffffffff1602179055507fd6c01bd89c1a9c8ba9ba79701a62de692c010d64fd23820bb68a1d71204aa64d8242436000604051808573ffffffffffffffffffffffffffffffffffffffff1673ffffffffffffffffffffffffffffffffffffffff168152602001806020018581526020018481526020018360068111156101be57fe5b60ff168152602001828103825260108152602001807f50726f64756374204372656174696f6e000000000000000000000000000000008152506020019550505050505060405180910390a16102258261022e6401000000000261046d176401000000009004565b50505050610474565b6000806000600160009054906101000a900473ffffffffffffffffffffffffffffffffffffffff1692508273ffffffffffffffffffffffffffffffffffffffff1663f99ba862856000604051602001526040518263ffffffff167c0100000000000000000000000000000000000000000000000000000000028152600401808273ffffffffffffffffffffffffffffffffffffffff1673ffffffffffffffffffffffffffffffffffffffff168152602001915050602060405180830381600087803b15156102fb57600080fd5b6102c65a03f1151561030c57600080fd5b5050506040518051905091508190508073ffffffffffffffffffffffffffffffffffffffff1663f44a6ca9306040518263ffffffff167c0100000000000000000000000000000000000000000000000000000000028152600401808273ffffffffffffffffffffffffffffffffffffffff1673ffffffffffffffffffffffffffffffffffffffff168152602001915050600060405180830381600087803b15156103b557600080fd5b6102c65a03f115156103c657600080fd5b50505050505050565b828054600181600116156101000203166002900490600052602060002090601f016020900481019282601f1061041057805160ff191683800117855561043e565b8280016001018555821561043e579182015b8281111561043d578251825591602001919060010190610422565b5b50905061044b919061044f565b5090565b61047191905b8082111561046d576000816000905550600101610455565b5090565b90565b61064e806104836000396000f30060606040526004361061004c576000357c0100000000000000000000000000000000000000000000000000000000900463ffffffff1680631865c57d14610051578063b661e05014610127575b600080fd5b341561005c57600080fd5b6100646101af565b604051808060200184600681111561007857fe5b60ff1681526020018373ffffffffffffffffffffffffffffffffffffffff1673ffffffffffffffffffffffffffffffffffffffff168152602001828103825285818151815260200191508051906020019080838360005b838110156100ea5780820151818401526020810190506100cf565b50505050905090810190601f1680156101175780820380516001836020036101000a031916815260200191505b5094505050505060405180910390f35b341561013257600080fd5b6101ad600480803590602001908201803590602001908080601f0160208091040260200160405190810160405280939291908181526020018383808284378201915050505050509190803560ff1690602001909190803573ffffffffffffffffffffffffffffffffffffffff16906020019091905050610296565b005b6101b761060e565b6000806002600360009054906101000a900460ff16600360019054906101000a900473ffffffffffffffffffffffffffffffffffffffff16828054600181600116156101000203166002900480601f0160208091040260200160405190810160405280929190818152602001828054600181600116156101000203166002900480156102845780601f1061025957610100808354040283529160200191610284565b820191906000526020600020905b81548152906001019060200180831161026757829003601f168201915b50505050509250925092509250909192565b8160068111156102a257fe5b600360009054906101000a900460ff1660068111156102bd57fe5b141515156102ca57600080fd5b8073ffffffffffffffffffffffffffffffffffffffff163373ffffffffffffffffffffffffffffffffffffffff161415151561030557600080fd5b7fd6c01bd89c1a9c8ba9ba79701a62de692c010d64fd23820bb68a1d71204aa64d8184424386604051808673ffffffffffffffffffffffffffffffffffffffff1673ffffffffffffffffffffffffffffffffffffffff1681526020018060200185815260200184815260200183600681111561037d57fe5b60ff168152602001828103825286818151815260200191508051906020019080838360005b838110156103bd5780820151818401526020810190506103a2565b50505050905090810190601f1680156103ea5780820380516001836020036101000a031916815260200191505b50965050505050505060405180910390a181600360006101000a81548160ff0219169083600681111561041957fe5b021790555080600360016101000a81548173ffffffffffffffffffffffffffffffffffffffff021916908373ffffffffffffffffffffffffffffffffffffffff1602179055506104688161046d565b505050565b6000806000600160009054906101000a900473ffffffffffffffffffffffffffffffffffffffff1692508273ffffffffffffffffffffffffffffffffffffffff1663f99ba862856000604051602001526040518263ffffffff167c0100000000000000000000000000000000000000000000000000000000028152600401808273ffffffffffffffffffffffffffffffffffffffff1673ffffffffffffffffffffffffffffffffffffffff168152602001915050602060405180830381600087803b151561053a57600080fd5b6102c65a03f1151561054b57600080fd5b5050506040518051905091508190508073ffffffffffffffffffffffffffffffffffffffff1663f44a6ca9306040518263ffffffff167c0100000000000000000000000000000000000000000000000000000000028152600401808273ffffffffffffffffffffffffffffffffffffffff1673ffffffffffffffffffffffffffffffffffffffff168152602001915050600060405180830381600087803b15156105f457600080fd5b6102c65a03f1151561060557600080fd5b50505050505050565b6020604051908101604052806000815250905600a165627a7a72305820f763e63e71ee4fd57b4910846d4c0e69490dee892cd24ab8e20f1bcf742eac8b0029",
  "source": "pragma solidity ^0.4.18;\r\n\r\nimport \"./ProductDatabase.sol\";\r\nimport \"./SupplyChainRegistry.sol\";\r\n\r\ncontract Product {\r\n\r\n    address PRODUCT_FACTORY;\r\n    address REGISTRY;\r\n    string name;\r\n    Status currentStatus;\r\n    address currentHolder;\r\n\r\n    //MF: manufacturing, RTS: ready to ship, SP: shipped, WH: in warehouse\r\n    //ITR: in transit to retail, RRS: ready retail stock\r\n    enum Status {None, MF, RTS, SP, WH, ITR, RRS}\r\n\r\n    event OnActionEvent (\r\n        address _ref,\r\n        string _description,\r\n        uint _timestamp,\r\n        uint _blockNumber,\r\n        Status _status\r\n    );\r\n\r\n    function Product(string _name, address _productFactory, address _ref, address _registry) public {\r\n        PRODUCT_FACTORY = _productFactory;\r\n        REGISTRY = _registry;\r\n        name = _name;\r\n        currentStatus = Status.None;\r\n        currentHolder = _ref;\r\n        OnActionEvent(_ref, \"Product Creation\", now, block.number, Status.None);\r\n        addProductToDatabase(_ref);\r\n    }\r\n\r\n    function addAction(string _description, Status _status, address _ref) public {\r\n        require(currentStatus != _status);\r\n        require(msg.sender != _ref);\r\n        OnActionEvent(_ref, _description, now, block.number, _status);\r\n        currentStatus = _status;\r\n        currentHolder = _ref;\r\n        addProductToDatabase(_ref);\r\n    }\r\n\r\n    function getState() public view returns(string _name, Status _currentStatus, address _currentHolder) {\r\n        return (name, currentStatus, currentHolder);\r\n    }\r\n\r\n    function addProductToDatabase(address _ref) private {\r\n        SupplyChainRegistry scRegistry = SupplyChainRegistry(REGISTRY);\r\n        address productDB = scRegistry.getActorDatabase(_ref);\r\n        ProductDatabase database = ProductDatabase(productDB);\r\n        database.addProduct(this);\r\n    }\r\n}",
  "sourcePath": "C:\\Users\\QK148GL\\Documents\\Blockchain\\dapps\\pts\\contracts\\Product.sol",
  "compiler": {
    "name": "solc",
    "version": "0.4.18+commit.9cf6e910.Emscripten.clang"
  },
  "schemaVersion": "1.0.1",
  "updatedAt": "2017-11-14T20:38:42.167Z"
}