{
  "contractName": "SupplyChainRegistry",
  "abi": [
    {
      "constant": true,
      "inputs": [
        {
          "name": "_address",
          "type": "address"
        }
      ],
      "name": "getActor",
      "outputs": [
        {
          "name": "",
          "type": "uint8"
        },
        {
          "name": "",
          "type": "string"
        },
        {
          "name": "",
          "type": "address"
        }
      ],
      "payable": false,
      "stateMutability": "view",
      "type": "function"
    },
    {
      "constant": true,
      "inputs": [
        {
          "name": "",
          "type": "uint256"
        }
      ],
      "name": "actorList",
      "outputs": [
        {
          "name": "",
          "type": "address"
        }
      ],
      "payable": false,
      "stateMutability": "view",
      "type": "function"
    },
    {
      "constant": true,
      "inputs": [
        {
          "name": "_address",
          "type": "address"
        }
      ],
      "name": "getActorType",
      "outputs": [
        {
          "name": "",
          "type": "uint8"
        }
      ],
      "payable": false,
      "stateMutability": "view",
      "type": "function"
    },
    {
      "constant": true,
      "inputs": [],
      "name": "getCount",
      "outputs": [
        {
          "name": "count",
          "type": "uint256"
        }
      ],
      "payable": false,
      "stateMutability": "view",
      "type": "function"
    },
    {
      "constant": false,
      "inputs": [
        {
          "name": "_type",
          "type": "uint8"
        },
        {
          "name": "_name",
          "type": "string"
        }
      ],
      "name": "registerActor",
      "outputs": [],
      "payable": false,
      "stateMutability": "nonpayable",
      "type": "function"
    },
    {
      "constant": true,
      "inputs": [
        {
          "name": "_address",
          "type": "address"
        }
      ],
      "name": "getActorDatabase",
      "outputs": [
        {
          "name": "",
          "type": "address"
        }
      ],
      "payable": false,
      "stateMutability": "view",
      "type": "function"
    }
  ],
  "bytecode": "0x6060604052341561000f57600080fd5b610b4f8061001e6000396000f300606060405260043610610078576000357c0100000000000000000000000000000000000000000000000000000000900463ffffffff1680634138d1671461007d578063932e8fc6146101775780639ee677ed146101da578063a87d942c14610235578063e501392f1461025e578063f99ba862146102c7575b600080fd5b341561008857600080fd5b6100b4600480803573ffffffffffffffffffffffffffffffffffffffff16906020019091905050610340565b604051808460038111156100c457fe5b60ff168152602001806020018373ffffffffffffffffffffffffffffffffffffffff1673ffffffffffffffffffffffffffffffffffffffff168152602001828103825284818151815260200191508051906020019080838360005b8381101561013a57808201518184015260208101905061011f565b50505050905090810190601f1680156101675780820380516001836020036101000a031916815260200191505b5094505050505060405180910390f35b341561018257600080fd5b61019860048080359060200190919050506104e7565b604051808273ffffffffffffffffffffffffffffffffffffffff1673ffffffffffffffffffffffffffffffffffffffff16815260200191505060405180910390f35b34156101e557600080fd5b610211600480803573ffffffffffffffffffffffffffffffffffffffff16906020019091905050610526565b6040518082600381111561022157fe5b60ff16815260200191505060405180910390f35b341561024057600080fd5b61024861057e565b6040518082815260200191505060405180910390f35b341561026957600080fd5b6102c5600480803560ff1690602001909190803590602001908201803590602001908080601f0160208091040260200160405190810160405280939291908181526020018383808284378201915050505050509190505061058b565b005b34156102d257600080fd5b6102fe600480803573ffffffffffffffffffffffffffffffffffffffff169060200190919050506106bd565b604051808273ffffffffffffffffffffffffffffffffffffffff1673ffffffffffffffffffffffffffffffffffffffff16815260200191505060405180910390f35b600061034a610728565b60008060008573ffffffffffffffffffffffffffffffffffffffff1673ffffffffffffffffffffffffffffffffffffffff16815260200190815260200160002060000160009054906101000a900460ff166000808673ffffffffffffffffffffffffffffffffffffffff1673ffffffffffffffffffffffffffffffffffffffff1681526020019081526020016000206001016000808773ffffffffffffffffffffffffffffffffffffffff1673ffffffffffffffffffffffffffffffffffffffff16815260200190815260200160002060020160009054906101000a900473ffffffffffffffffffffffffffffffffffffffff16818054600181600116156101000203166002900480601f0160208091040260200160405190810160405280929190818152602001828054600181600116156101000203166002900480156104d35780601f106104a8576101008083540402835291602001916104d3565b820191906000526020600020905b8154815290600101906020018083116104b657829003601f168201915b505050505091509250925092509193909250565b6001818154811015156104f657fe5b90600052602060002090016000915054906101000a900473ffffffffffffffffffffffffffffffffffffffff1681565b60008060008373ffffffffffffffffffffffffffffffffffffffff1673ffffffffffffffffffffffffffffffffffffffff16815260200190815260200160002060000160009054906101000a900460ff169050919050565b6000600180549050905090565b600061059561073c565b604051809103906000f08015156105ab57600080fd5b90506060604051908101604052808460038111156105c557fe5b81526020018381526020018273ffffffffffffffffffffffffffffffffffffffff168152506000803373ffffffffffffffffffffffffffffffffffffffff1673ffffffffffffffffffffffffffffffffffffffff16815260200190815260200160002060008201518160000160006101000a81548160ff0219169083600381111561064c57fe5b0217905550602082015181600101908051906020019061066d92919061074c565b5060408201518160020160006101000a81548173ffffffffffffffffffffffffffffffffffffffff021916908373ffffffffffffffffffffffffffffffffffffffff160217905550905050505050565b60008060008373ffffffffffffffffffffffffffffffffffffffff1673ffffffffffffffffffffffffffffffffffffffff16815260200190815260200160002060020160009054906101000a900473ffffffffffffffffffffffffffffffffffffffff169050919050565b602060405190810160405280600081525090565b604051610332806107f283390190565b828054600181600116156101000203166002900490600052602060002090601f016020900481019282601f1061078d57805160ff19168380011785556107bb565b828001600101855582156107bb579182015b828111156107ba57825182559160200191906001019061079f565b5b5090506107c891906107cc565b5090565b6107ee91905b808211156107ea5760008160009055506001016107d2565b5090565b9056006060604052341561000f57600080fd5b6103148061001e6000396000f300606060405260043610610057576000357c0100000000000000000000000000000000000000000000000000000000900463ffffffff1680637acc0b2014610067578063a87d942c146100ca578063f44a6ca9146100f3575b341561006257600080fd5b600080fd5b341561007257600080fd5b610088600480803590602001909190505061012c565b604051808273ffffffffffffffffffffffffffffffffffffffff1673ffffffffffffffffffffffffffffffffffffffff16815260200191505060405180910390f35b34156100d557600080fd5b6100dd61016b565b6040518082815260200191505060405180910390f35b34156100fe57600080fd5b61012a600480803573ffffffffffffffffffffffffffffffffffffffff16906020019091905050610177565b005b60008181548110151561013b57fe5b90600052602060002090016000915054906101000a900473ffffffffffffffffffffffffffffffffffffffff1681565b60008080549050905090565b600160008273ffffffffffffffffffffffffffffffffffffffff1673ffffffffffffffffffffffffffffffffffffffff16815260200190815260200160002060009054906101000a900460ff16156101ce57600080fd5b600080548060010182816101e29190610297565b9160005260206000209001600083909190916101000a81548173ffffffffffffffffffffffffffffffffffffffff021916908373ffffffffffffffffffffffffffffffffffffffff160217905550507f32ce9bb6ac5aefe4253f61c408ef10c74d8218c4454d01068b550e90022f3fbe81604051808273ffffffffffffffffffffffffffffffffffffffff1673ffffffffffffffffffffffffffffffffffffffff16815260200191505060405180910390a150565b8154818355818115116102be578183600052602060002091820191016102bd91906102c3565b5b505050565b6102e591905b808211156102e15760008160009055506001016102c9565b5090565b905600a165627a7a7230582022a1f2063a6ca4608e5a2a3964ca51b996d87206dfc5678e500bc160c9ab8aa80029a165627a7a7230582077b02421d404725bdb53a3dfd128c4c1f4f19d57ebeef1c3792c0e9002782b040029",
  "source": "pragma solidity ^0.4.18;\r\n\r\nimport \"./ProductDatabase.sol\";\r\n\r\ncontract SupplyChainRegistry {\r\n\r\n    enum ActorType { Manufacturer, Shipper, Distributor, Retailer }\r\n\r\n    struct Actor {\r\n        ActorType actorType;\r\n        string name;\r\n        address productDatabase;\r\n    }\r\n\r\n    mapping (address => Actor) actors;\r\n    address[] public actorList;\r\n\r\n    function registerActor(ActorType _type, string _name) public {\r\n        ProductDatabase pdb = new ProductDatabase();\r\n        actors[msg.sender] = Actor(_type, _name, pdb);\r\n    }\r\n\r\n    function getActor(address _address) public view returns (ActorType, string, address) {\r\n        return (\r\n            actors[_address].actorType,\r\n            actors[_address].name,\r\n            actors[_address].productDatabase);\r\n    }\r\n\r\n    function getActorDatabase(address _address) public view returns (address) {\r\n        return actors[_address].productDatabase;\r\n    }\r\n\r\n    function getActorType(address _address) public view returns (ActorType) {\r\n        return actors[_address].actorType;\r\n    }\r\n\r\n    function getCount() public view returns (uint count) {\r\n        return actorList.length;\r\n    }\r\n}",
  "sourcePath": "C:\\Users\\CQ464UC\\Documents\\git\\Blockchain-Provenance-Tracking-Tool\\contracts\\SupplyChainRegistry.sol",
  "compiler": {
    "name": "solc",
    "version": "0.4.18+commit.9cf6e910.Emscripten.clang"
  },
  "schemaVersion": "1.0.1",
  "updatedAt": "2017-11-15T17:12:27.681Z"
}